:100000000C9434000C9451000C9451000C94510049
:100010000C9451000C9451000C9451000C9451001C
:100020000C9451000C9451000C9451000C9451000C
:100030000C9451000C946C000C9451000C945100E1
:100040000C9451000C9451000C9410010C943E013E
:100050000C9451000C9451000C9451000C945100DC
:100060000C9451000C94510011241FBECFEFD8E026
:10007000DEBFCDBF11E0A0E0B1E0E8EBF3E002C0ED
:1000800005900D92A633B107D9F721E0A6E3B1E0C0
:1000900001C01D92AB37B207E1F70E9453000C94E8
:1000A000DA010C9400000E94E00087E690E00E94D4
:1000B0006801E1E8F0E080818A7F8083808182604E
:1000C0008083EFE6F0E0808181608083789482E035
:1000D00091E00E949801FFCF1F920F920FB60F92EE
:1000E00011241F932F933F934F935F936F937F93AD
:1000F0008F939F93AF93BF93EF93FF93CF93DF9330
:1001000000D0CDB7DEB780E390E39A8389838091F6
:100110000101823089F0833009F18130C1F580918D
:10012000000191E0980F909300018750803790F57F
:1001300082E0809301012EC080910001880F0E940F
:10014000EF00182F0E940C01111104C083E080936E
:10015000010120C081E0809301011CC080E291E098
:100160000E9498018091000140E1BE016F5F7F4FC6
:1001700090E00E94A501CE0101960E9498018DE1B8
:1001800091E00E94980181E08093010103C081E029
:10019000809301010F900F90DF91CF91FF91EF912C
:1001A000BF91AF919F918F917F916F915F914F918F
:1001B0003F912F911F910F900FBE0F901F90189598
:1001C00087B18F7C87B988B1806388B9E9EBF0E0AB
:1001D00080818C7F808388E98093B800089594EAB9
:1001E0009093BC009091BC009923E4F78093BB00EE
:1001F00084E88093BC008091BC008823E4F7809160
:10020000B900887F883121F0803421F480E008959E
:1002100080E0089581E0089584E98093BC0008950A
:100220001F920F920FB60F9211242F938F939F93CB
:10023000EF93FF938091C0002091C6008C71E091F4
:100240003801EF5FEF7190913701E91739F0E093D2
:100250003801F0E0E55CFE4F208301C082E0909120
:100260003601892B80933601FF91EF919F918F91F9
:100270002F910F900FBE0F901F9018951F920F9205
:100280000FB60F9211248F939F93EF93FF9390914A
:100290003A0180913901981769F0E0913901EF5FD7
:1002A000EF71E0933901F0E0E55AFE4F80818093D1
:1002B000C60005C0E1ECF0E080818F7D8083FF9176
:1002C000EF919F918F910F900FBE0F901F901895F7
:1002D00010923A01109239011092380110923701B0
:1002E000282F392F33231CF422E02093C00090786C
:1002F0009093C5008093C40088E98093C10086E094
:100300008093C200089520913A012F5F2F71909140
:1003100039012917E1F3E22FF0E0E55AFE4F80831F
:1003200020933A01E1ECF0E08081806280830895BF
:10033000CF93DF93EC0103C021960E948301888153
:100340008111FACFDF91CF910895BB274A3031F464
:10035000992322F4BDE2909581959F4F0C94B101B1
:10036000BB27FB015527AA27880F991FAA1FA4178F
:1003700010F0A41B83955051B9F7A05DAA3308F083
:10038000A95DA193009779F7B111B1931192CB01B7
:100390000C94CA01DC01FC01672F71917723E1F70E
:1003A000329704C07C916D9370836291AE17BF0742
:0803B000C8F30895F894FFCF93
:1003B80007010D0A5363616E204932432D6275733C
:1003C80020666F7220646576696365733A0D0A006A
:1003D800466F756E6420616E206164647265737324
:0603E8003A20307800000D
:00000001FF
