S00B00006C63642E73726563E6
S11300000C9434000C9451000C9451000C94510045
S11300100C9451000C9451000C9451000C94510018
S11300200C9451000C9451000C9451000C94510008
S11300300C9451000C9451000C9451000C945100F8
S11300400C9486010C9451000C9451000C945100B2
S11300500C9451000C9451000C9451000C945100D8
S11300600C9451000C94510011241FBECFEFD8E022
S1130070DEBFCDBF11E0A0E0B1E0E2EAF4E002C0EF
S113008005900D92A233B107D9F721E0A2E3B1E0C4
S113009001C01D92A733B207E1F70E944C010C94F2
S11300A04F020C94000085B1826085B985E08A9581
S11300B0F1F7000085B18D7F85B90895CF93C82FDE
S11300C0662321F085B1816085B903C085B18E7F37
S11300D085B98AB180618AB98AB180628AB98AB1E4
S11300E080648AB98AB180688AB98BB18F778BB9F9
S11300F08BB18F7B8BB98BB18F7D8BB98BB18F7E9D
S11301008BB9CC231CF48BB180688BB9C6FF03C0B8
S11301108BB180648BB9C5FF03C08BB180628BB98E
S1130120C4FF03C08BB180618BB90E9453008BB1B3
S11301308F778BB98BB18F7B8BB98BB18F7D8BB95B
S11301408BB18F7E8BB9C3FF03C08BB180688BB931
S1130150C2FF03C08BB180648BB9C1FF03C08BB1F4
S113016080628BB9C0FF03C08BB180618BB90E94E0
S113017053008BB180618BB98BB180628BB98BB129
S113018080648BB98BB180688BB987EB9BE0019756
S1130190F1F700C00000CF91089560E00E945E0076
S11301A0089561E00E945E000895611104C08058C2
S11301B00E94CD00089580540E94CD00089581E0EE
S11301C00E94CD00089561E00E945E000895CF93DF
S11301D0DF93FC0103C00E94E300FE01EF012196BE
S11301E080818111F8CFDF91CF910895CF93C82FEB
S11301F084B1816084B98AB180628AB984B1826031
S113020084B98AB180618AB98AB180628AB98AB1B3
S113021080648AB98AB180688AB98FEF99EF0197AF
S1130220F1F700C000008BB180628BB98BB18061A3
S11302308BB90E9453008FE19EE40197F1F700C04F
S113024000000E9453008FEF90E00197F1F700C087
S113025000000E9453008FEF90E00197F1F700C077
S113026000008BB18F7E8BB90E9453008FEF90E01A
S11302700197F1F700C0000088E20E94CD0088E0F9
S11302800E94CD000E94DF0086E00E94CD008C2FEA
S11302900E94CD00CF9108958CE00E94F60060E0AA
S11302A081E00E94D50080E291E00E94E70061E0D5
S11302B081E00E94D5008CE291E00E94E70061E0B9
S11302C08BE00E94D5008EE291E00E94E70080E47A
S11302D00E94CD00C0E008C0EC2FF0E0E050FF4FDA
S11302E080810E94D100CF5FC032B0F380E80E94C9
S11302F0CD0085B5897F85BD85B5816085BDEEE678
S1130300F0E08081816080837894FFCF1F920F9208
S11303100FB60F9211240F931F932F933F934F9374
S11303205F936F937F938F939F93AF93BF93EF9359
S1130330FF93CF93DF9300D01F92CDB7DEB780E257
S113034089838A838B83809136018F5F8093360102
S1130350909135019F5F90933501883108F452C024
S113036010923601809134018F5F809334018A307A
S1130370A0F010923401809133018F5F8093330198
S11303808A3058F010923301809132018F5F80934C
S11303903201863010F010923201943098F11092AC
S11303A0350160E087E00E94D500809134014AE085
S11303B08E010F5F1F4FB80190E00E941A02802F38
S11303C00E94E30060E085E00E94D5008091330143
S11303D00F5F1F4F4AE0B80190E00E941A02802F7D
S11303E00E94E30060E084E00E94D5008091320125
S11303F00F5F1F4F4AE0B80190E00E941A02802F5D
S11304000E94E3000F900F900F90DF91CF91FF9126
S1130410EF91BF91AF919F918F917F916F915F9178
S11304204F913F912F911F910F910F900FBE0F90FD
S11304301F901895BB274A3031F4992322F4BDE26A
S1130440909581959F4F0C942602BB27FB0155275D
S1130450AA27880F991FAA1FA41710F0A41B83951D
S11304605051B9F7A05DAA3308F0A95DA193009794
S113047079F7B111B1931192CB010C943F02DC01D5
S1130480FC01672F71917723E1F7329704C07C91C7
S11304906D9370836291AE17BF07C8F30895F89403
S10504A0FFCF88
S11304A20E0E1F111111111F0E0E1F1111111F1FFC
S11304B20E0E1F11111F1F1F0E0E1F111F1F1F1FB4
S11304C230303A30302E3020202061006200635FE9
S10504D2000024
S9030000FC
