S00B00006C65642E73726563E4
S11300000C9434000C943E000C943E000C943E007E
S11300100C943E000C943E000C943E000C943E0064
S11300200C943E000C943E000C943E000C943E0054
S11300300C943E000C943E000C943E000C943E0044
S11300400C943E000C943E000C943E000C943E0034
S11300500C943E000C943E000C943E000C943E0024
S11300600C943E000C943E0011241FBECFEFD8E048
S1130070DEBFCDBF0E9440000C9477000C940000BA
S113008084B1806284B985B18F7D85B985B1806280
S113009085B92FEF83EC99E0215080409040E1F73F
S11300A000C0000085B18F7D85B92FEF83ED90E30B
S11300B0215080409040E1F700C0000085B180628B
S11300C085B92FEF83ED90E3215080409040E1F714
S11300D000C0000085B18F7D85B92FEF83ED90E3DB
S11300E0215080409040E1F700C00000CFCFF89449
S10500F0FFCF3C
S9030000FC
