S01000007365676D656E74732E73726563AE
S11300000C9434000C9451000C9451000C94510045
S11300100C9451000C9451000C9451000C94510018
S11300200C9451000C9451000C9451000C94510008
S11300300C9451000C9451000C9451000C945100F8
S11300400C9451000C9451000C9451000C945100E8
S11300500C9451000C9451000C9451000C945100D8
S11300600C9451000C94510011241FBECFEFD8E022
S1130070DEBFCDBF11E0A0E0B1E0E2E0F2E002C0FB
S113008005900D92AA30B107D9F721E0AAE0B1E0BA
S113009001C01D92AA30B207E1F70E9478000C94C7
S11300A0FF000C940000FC01408121E030E002C01C
S11300B0220F331F6A95E2F7242B20830895FC0155
S11300C0908121E030E002C0220F331F6A95E2F7ED
S11300D02095292320830895FC01408121E030E00C
S11300E002C0220F331F6A95E2F7242B2083089560
S11300F00E947F0060E083E00E948F00FFCF64E0F5
S11301008AE290E00E94530067E08AE290E00E9455
S1130110530060E084E290E00E9453000895CF937E
S1130120DF93E82FF0E0E050FF4FD08164E08BE2F2
S113013090E00E945F0067E08BE290E00E945F0025
S113014060E085E290E00E945F0085E08A95F1F727
S11301500000C0E021C0D0FD06C060E085E290E070
S11301600E945F0005C060E085E290E00E946C00A0
S113017085E08A95F1F7000067E08BE290E00E9449
S11301806C0085E08A95F1F7000067E08BE290E06F
S11301900E945F00D695CF5FC830E8F2C0E021C06E
S11301A0C0FD06C060E085E290E00E946C0005C0DE
S11301B060E085E290E00E945F0085E08A95F1F7B7
S11301C0000067E08BE290E00E946C0085E08A9575
S11301D0F1F7000067E08BE290E00E945F00C695B3
S11301E0CF5FC830E8F264E08BE290E00E946C00DC
S11301F085E08A95F1F70000DF91CF910895F89496
S1050200FFCF2A
S10D0202039F250D9949411F0109CE
S9030000FC
