S00C00006C6564732E7372656370
S11300000C9434000C943E000C943E000C943E007E
S11300100C943E000C943E000C943E000C943E0064
S11300200C943E000C943E000C943E000C943E0054
S11300300C943E000C943E000C943E000C943E0044
S11300400C943E000C943E000C943E000C943E0034
S11300500C943E000C943E000C943E000C943E0024
S11300600C943E000C943E0011241FBECFEFD8E048
S1130070DEBFCDBF0E9440000C945D000C940000D4
S113008084B1806284B985B18F7D85B987B181607F
S113009087B988B18E7F88B98AB18E7F8AB98BB1CE
S11300A081608BB94899FECF95B180E2892785B9E3
S11100B098B181E0892788B9F5CFF894FFCF85
S9030000FC
