:100000000C9434000C9446000C9446000C9446006A
:100010000C9446000C9446000C9446000C94460048
:100020000C9446000C9446000C9446000C94460038
:100030000C9446000C94A4000C9446000C944600CA
:100040000C9446000C9446000C9446000C94460018
:100050000C9446000C9446000C9446000C94460008
:100060000C9446000C94460011241FBECFEFD8E03C
:10007000DEBFCDBF21E0A0E0B1E001C01D92A13004
:10008000B207E1F70E946D000C948E010C94000001
:10009000FC01408121E030E002C0220F331F6A954D
:1000A000E2F7242B20830895FC01908121E030E0C9
:1000B00002C0220F331F6A95E2F72095292320837F
:1000C0000895FC01408121E030E002C0220F331F7F
:1000D0006A95E2F7242B2083089565E084E290E09E
:1000E0000E94480065E085E290E00E94540064E0D0
:1000F00084E290E00E94480064E085E290E00E9483
:10010000610063E084E290E00E94480063E085E2E1
:1001100090E00E94610062E084E290E00E9448006A
:1001200062E085E290E00E946100E1E8F0E0808119
:100130008B7F8083808183608083EFE6F0E0808125
:10014000816080837894FFCF1F920F920FB60F9239
:1001500011242F933F934F935F936F937F938F93CC
:100160009F93AF93BF93EF93FF93809100018630ED
:10017000B1F465E085E290E00E94540064E085E21D
:1001800090E00E94610063E085E290E00E946100DF
:1001900062E085E290E00E9461001092000180918F
:1001A00000018530C9F464E085E290E00E945400CB
:1001B00065E085E290E00E94610063E085E290E006
:1001C0000E94610062E085E290E00E9461008091FF
:1001D00000018F5F80930001809100018430C9F499
:1001E00063E085E290E00E94540065E085E290E0E3
:1001F0000E94610064E085E290E00E94610062E09C
:1002000085E290E00E946100809100018F5F809301
:100210000001809100018330C9F462E085E290E042
:100220000E94540065E085E290E00E94610064E075
:1002300085E290E00E94610063E085E290E00E9428
:100240006100809100018F5F809300018091000127
:100250008230C9F463E085E290E00E94540065E0DA
:1002600085E290E00E94610064E085E290E00E94F7
:10027000610062E085E290E00E94610080910001EF
:100280008F5F80930001809100018130C9F464E0A8
:1002900085E290E00E94540065E085E290E00E94D3
:1002A000610063E085E290E00E94610062E085E227
:1002B00090E00E946100809100018F5F80930001B7
:1002C00080910001811119C065E085E290E00E94F3
:1002D000540064E085E290E00E94610063E085E202
:1002E00090E00E94610062E085E290E00E9461007F
:1002F000809100018F5F80930001FF91EF91BF918A
:10030000AF919F918F917F916F915F914F913F91AD
:100310002F910F900FBE0F901F901895F894FFCF5C
:00000001FF
