:100000000C9434000C9486020C9451000C94510012
:100010000C9451000C9451000C9451000C9451001C
:100020000C9451000C9451000C9451000C9451000C
:100030000C9451000C9451000C9451000C945100FC
:100040000C9451000C9451000C94BD020C94EB02E2
:100050000C9451000C9451000C9451000C945100DC
:100060000C9451000C94510011241FBECFEFD8E026
:10007000DEBFCDBF11E0A0E0B1E0ECEEF8E002C0E1
:1000800005900D92AC34B107D9F722E0ACE4B1E0B1
:1000900001C01D92A535B207E1F70E9493010C94AF
:1000A00074040C940000FC01408121E030E002C0A7
:1000B000220F331F6A95E2F7242B20830895FC0159
:1000C000808121E030E002C0220F331F6A95E2F701
:1000D0002095822380838181282321830895FC0138
:1000E000908121E030E002C0220F331F6A95E2F7D1
:1000F0002095292320830895FC01408121E030E0F0
:1001000002C0220F331F6A95E2F7242B2083089543
:1001100085B1826085B985E08A95F1F7000085B1E7
:100120008D7F85B90895CF93C82F662321F085B1BF
:10013000816085B903C085B18E7F85B98AB1806140
:100140008AB98AB180628AB98AB180648AB98AB16F
:1001500080688AB98BB18F778BB98BB18F7B8BB964
:100160008BB18F7D8BB98BB18F7E8BB9CC231CF477
:100170008BB180688BB9C6FF03C08BB180648BB92B
:10018000C5FF03C08BB180628BB9C4FF03C08BB1C4
:1001900080618BB90E9488008BB18F778BB98BB14E
:1001A0008F7B8BB98BB18F7D8BB98BB18F7E8BB9E8
:1001B000C3FF03C08BB180688BB9C2FF03C08BB192
:1001C00080648BB9C1FF03C08BB180628BB9C0FF63
:1001D00003C08BB180618BB90E9488008BB18061B4
:1001E0008BB98BB180628BB98BB180648BB98BB1C9
:1001F00080688BB987EB9BE00197F1F700C00000A6
:10020000CF91089560E00E949300089561E00E94FC
:1002100093000895611104C080580E94020108955E
:1002200080540E940201089581E00E940201089515
:1002300061E00E9493000895CF93DF93FC0103C017
:100240000E941801FE01EF01219680818111F8CFF3
:10025000DF91CF910895CF93C82F84B1816084B985
:100260008AB180628AB984B1826084B98AB18061BE
:100270008AB98AB180628AB98AB180648AB98AB13E
:1002800080688AB98FEF99EF0197F1F700C00000FD
:100290008BB180628BB98BB180618BB90E94880071
:1002A0008FE19EE40197F1F700C000000E948800F2
:1002B0008FEF90E00197F1F700C000000E948800E6
:1002C0008FEF90E00197F1F700C000008BB18F7EB7
:1002D0008BB90E9488008FEF90E00197F1F700C082
:1002E000000088E20E94020188E00E9402010E9450
:1002F000140186E00E9402018C2F0E940201CF911E
:10030000089520914D0130E08217930720F421E0F9
:1003100020934C0102C010924C0180934D018091BA
:100320004C0190E0089562E08AE290E00E94530060
:1003300062E08BE290E00E946F0063E08AE290E06E
:100340000E945F0064E084E290E00E94530064E059
:1003500085E290E00E947C008CE00E942B0161E02D
:1003600080E00E940A018CE391E00E941C0180E47D
:100370000E940201C0E008C0EC2FF0E0E050FF4F07
:1003800080810E940601CF5FC832B0F380E80E94EE
:1003900002018DB381608DBBE9E6F0E08081816070
:1003A000808380818D7F8083789462E08AE290E010
:1003B0000E947C0025E32A95F1F7000062E08AE2C2
:1003C00090E00E946F0060913A0170913B0180E0E3
:1003D00090E00E94440325E935E648E05CE30E9492
:1003E000AA030E9415037093390160933801CB0171
:1003F0000E948101892B41F060E08FE00E940A0198
:1004000084E00E94180108C060E08FE00E940A01A9
:1004100087E491E00E941C0120913801309139015C
:100420004AE068E271E088EC90E0821B930B0E9446
:100430003F0461E085E00E940A0181E491E00E94AE
:100440001C0161E085E00E940A0188E291E00E94BF
:100450001C0189E491E00E941C0180913801909177
:1004600039018A31910540F461E08FE00E940A0170
:1004700080E00E9418011DC08536910540F461E0BE
:100480008FE00E940A0181E00E94180112C0803BA7
:10049000910540F461E08FE00E940A0182E00E9431
:1004A000180107C061E08FE00E940A0183E00E940A
:1004B00018018FEF93ED20E3815090402040E1F749
:1004C00000C0000080913801909139018B30910576
:1004D00068F420914F01211109C064E085E290E0A9
:1004E0000E946F0081E080934F015FCFC29708F4B4
:1004F0005CCF80914F01882309F457CF64E085E2F7
:1005000090E00E947C0010924F014FCF1F920F92FB
:100510000FB60F9211248F939F93EF93FF938091C7
:100520004E0181110CC081E080934E01E1E8F0E0C2
:1005300080818A7F808380818260808315C08091E2
:100540004E01813089F4E1E8F0E08081887F80838A
:10055000E4E8F0E08081918190933B0180933A013F
:100560001182108210924E01FF91EF919F918F9115
:100570000F900FBE0F901F9018951F920F920FB6FD
:100580000F9211242F938F939F93EF93FF9380915A
:10059000C0002091C6008C71E0915201EF5FEF77AF
:1005A00090915101E91739F0E0935201F0E0EB5AD4
:1005B000FE4F208301C082E090915001892B8093EF
:1005C0005001FF91EF919F918F912F910F900FBE4E
:1005D0000F901F9018951F920F920FB60F92112433
:1005E0008F939F93EF93FF939091540180915301C8
:1005F000981769F0E0915301EF5FEF77E0935301B3
:10060000F0E0EB52FE4F80818093C60005C0E1EC24
:10061000F0E080818F7D8083FF91EF919F918F919A
:100620000F900FBE0F901F9018950E94890388F0BD
:100630009F5798F0B92F9927B751B0F0E1F0660FA6
:10064000771F881F991F1AF0BA95C9F714C0B130E7
:1006500091F00E94A303B1E008950C94A303672FC7
:10066000782F8827B85F39F0B93FCCF38695779516
:100670006795B395D9F73EF49095809570956195FF
:100680007F4F8F4F9F4F0895E89409C097FB3EF42A
:1006900090958095709561957F4F8F4F9F4F9923CF
:1006A000A9F0F92F96E9BB279395F695879577954D
:1006B0006795B795F111F8CFFAF4BB0F11F460FF0D
:1006C0001BC06F5F7F4F8F4F9F4F16C0882311F065
:1006D00096E911C0772321F09EE8872F762F05C079
:1006E000662371F096E8862F70E060E02AF09A9514
:1006F000660F771F881FDAF7880F9695879597F909
:10070000089557FD9058440F551F59F05F3F71F001
:100710004795880F97FB991F61F09F3F79F0879568
:100720000895121613061406551FF2CF4695F1DFF1
:1007300008C0161617061806991FF1CF8695710581
:10074000610508940895E894BB2766277727CB01B5
:1007500097F908950E94BD030C942E040E94200472
:1007600038F00E94270420F0952311F00C94170410
:100770000C941D0411240C94A4030E94810370F3B3
:10078000959FC1F3950F50E0551F629FF001729F36
:10079000BB27F00DB11D639FAA27F00DB11DAA1F45
:1007A000649F6627B00DA11D661F829F2227B00D92
:1007B000A11D621F739FB00DA11D621F839FA00D1D
:1007C000611D221F749F3327A00D611D231F849F6D
:1007D000600D211D822F762F6A2F11249F575040C4
:1007E0009AF0F1F088234AF0EE0FFF1FBB1F661F3F
:1007F000771F881F91505040A9F79E3F510580F008
:100800000C9417040C94A4035F3FE4F3983ED4F3D4
:10081000869577956795B795F795E7959F5FC1F7AB
:10082000FE2B880F911D9695879597F9089597F956
:100830009F6780E870E060E008959FEF80EC089586
:1008400000240A94161617061806090608950024AF
:100850000A9412161306140605060895092E039429
:10086000000C11F4882352F0BB0F40F4BF2B11F49D
:1008700060FF04C06F5F7F4F8F4F9F4F0895BB276E
:100880004A3031F4992322F4BDE2909581959F4F2F
:100890000C944B04BB27FB015527AA27880F991FEF
:1008A000AA1FA41710F0A41B83955051B9F7A05D9F
:1008B000AA3308F0A95DA193009779F7B111B1931C
:1008C0001192CB010C946404DC01FC01672F71913F
:1008D0007723E1F7329704C07C916D937083629126
:0C08E000AE17BF07C8F30895F894FFCFCF
:1008EC00111F1F1F1F1F1F1F1111111F1F1F1F1F44
:1008FC0011111111111F1F1F111111111111111FA4
:10090C000E1F0E000A14020430000000000000004C
:10091C000000000000000000C80010274C564C3AA4
:0C092C00002020202020202000636D000F
:00000001FF
