S014000072656C655F70726F6A6563742E7372656312
S11300000C9434000C9449000C9449000C9449005D
S11300100C9449000C9449000C9449000C94490038
S11300200C9449000C9449000C9449000C94490028
S11300300C9449000C9449000C9449000C94490018
S11300400C946E010C9449000C9449000C944900E2
S11300500C9449000C9449000C9449000C944900F8
S11300600C9449000C94490011241FBECFEFD8E032
S1130070DEBFCDBF11E0A0E0B1E0E0E5F3E002C0F7
S113008005900D92A233B107D9F70E9444010C9454
S1130090A6010C94000085B1826085B985E08A953B
S11300A0F1F7000085B18D7F85B90895CF93C82FEE
S11300B0662321F085B1816085B903C085B18E7F47
S11300C085B98AB180618AB98AB180628AB98AB1F4
S11300D080648AB98AB180688AB98BB18F778BB909
S11300E08BB18F7B8BB98BB18F7D8BB98BB18F7EAD
S11300F08BB9CC231CF48BB180688BB9C6FF03C0C9
S11301008BB180648BB9C5FF03C08BB180628BB99E
S1130110C4FF03C08BB180618BB90E944B008BB1CB
S11301208F778BB98BB18F7B8BB98BB18F7D8BB96B
S11301308BB18F7E8BB9C3FF03C08BB180688BB941
S1130140C2FF03C08BB180648BB9C1FF03C08BB104
S113015080628BB9C0FF03C08BB180618BB90E94F0
S11301604B008BB180618BB98BB180628BB98BB141
S113017080648BB98BB180688BB987EB9BE0019766
S1130180F1F700C00000CF91089560E00E9456008E
S1130190089561E00E9456000895611104C08058DA
S11301A00E94C500089580540E94C500089581E00E
S11301B00E94C500089561E00E9456000895CF93FF
S11301C0DF93FC0103C00E94DB00FE01EF012196D6
S11301D080818111F8CFDF91CF910895CF93C82FFB
S11301E084B1816084B98AB180628AB984B1826041
S11301F084B98AB180618AB98AB180628AB98AB1C4
S113020080648AB98AB180688AB98FEF99EF0197BF
S1130210F1F700C000008BB180628BB98BB18061B3
S11302208BB90E944B008FE19EE40197F1F700C067
S113023000000E944B008FEF90E00197F1F700C09F
S113024000000E944B008FEF90E00197F1F700C08F
S113025000008BB18F7E8BB90E944B008FEF90E032
S11302600197F1F700C0000088E20E94C50088E011
S11302700E94C5000E94D70086E00E94C5008C2F12
S11302800E94C500CF9108958CE00E94EE0061E0C9
S113029080E00E94CD0088E291E00E94DF0080E4CB
S11302A00E94C500C0E008C0EC2FF0E0E050FF4F12
S11302B080810E94C900CF5FC832B0F380E80E94F9
S11302C0C50085B58B7F85BD85B5836085BDEEE6AC
S11302D0F0E08081816080837894FFCF1F920F9239
S11302E00FB60F9211242F933F934F935F936F9305
S11302F07F938F939F93AF93BF93EF93FF9361E0AB
S113030085E00E94CD008DE291E00E94DF0061E073
S11303108FE00E94CD0083E00E94DB0060E08FE06C
S11303200E94CD0084E00E94DB00FF91EF91BF9119
S1130330AF919F918F917F916F915F914F913F9179
S11303402F910F900FBE0F901F901895F894FFCF28
S1130350111F1F1F1F1F1F1F1111111F1F1F1F1FE1
S113036011111111111F1F1F111111111111111F41
S11303700E1F0E000A1402044C564C3A0032636DF0
S1050380000077
S9030000FC
