S014000072656C655F70726F6A6563742E7372656312
S11300000C9434000C9411020C9451000C94510083
S11300100C9451000C9451000C9451000C94510018
S11300200C9451000C9451000C9451000C94510008
S11300300C9451000C9451000C9451000C945100F8
S11300400C94D5010C9451000C946B020C949902FD
S11300500C9451000C9451000C9451000C945100D8
S11300600C9451000C94510011241FBECFEFD8E022
S1130070DEBFCDBF11E0A0E0B1E0EEE6F6E002C0E5
S113008005900D92A438B107D9F722E0A4E8B1E0B5
S113009001C01D92AA38B207E1F70E9481010C94B5
S11300A035030C940000FC01408121E030E002C0E3
S11300B0220F331F6A95E2F7242B20830895FC0155
S11300C0808121E030E002C0220F331F6A95E2F7FD
S11300D02095822380838181282321830895FC0134
S11300E0908121E030E002C0220F331F6A95E2F7CD
S11300F02095292320830895FC01408121E030E0EC
S113010002C0220F331F6A95E2F7242B208308953F
S113011085B1826085B985E08A95F1F7000085B1E3
S11301208D7F85B90895CF93C82F662321F085B1BB
S1130130816085B903C085B18E7F85B98AB180613C
S11301408AB98AB180628AB98AB180648AB98AB16B
S113015080688AB98BB18F778BB98BB18F7B8BB960
S11301608BB18F7D8BB98BB18F7E8BB9CC231CF473
S11301708BB180688BB9C6FF03C08BB180648BB927
S1130180C5FF03C08BB180628BB9C4FF03C08BB1C0
S113019080618BB90E9488008BB18F778BB98BB14A
S11301A08F7B8BB98BB18F7D8BB98BB18F7E8BB9E4
S11301B0C3FF03C08BB180688BB9C2FF03C08BB18E
S11301C080648BB9C1FF03C08BB180628BB9C0FF5F
S11301D003C08BB180618BB90E9488008BB18061B0
S11301E08BB98BB180628BB98BB180648BB98BB1C5
S11301F080688BB987EB9BE00197F1F700C00000A2
S1130200CF91089560E00E949300089561E00E94F8
S113021093000895611104C080580E94020108955A
S113022080540E940201089581E00E940201089511
S113023061E00E9493000895CF93DF93FC0103C013
S11302400E941801FE01EF01219680818111F8CFEF
S1130250DF91CF910895CF93C82F84B1816084B981
S11302608AB180628AB984B1826084B98AB18061BA
S11302708AB98AB180628AB98AB180648AB98AB13A
S113028080688AB98FEF99EF0197F1F700C00000F9
S11302908BB180628BB98BB180618BB90E9488006D
S11302A08FE19EE40197F1F700C000000E948800EE
S11302B08FEF90E00197F1F700C000000E948800E2
S11302C08FEF90E00197F1F700C000008BB18F7EB3
S11302D08BB90E9488008FEF90E00197F1F700C07E
S11302E0000088E20E94020188E00E9402010E944C
S11302F0140186E00E9402018C2F0E940201CF911A
S113030008958CE00E942B0161E080E00E940A01C4
S113031088E391E00E941C0180E40E940201C0E095
S113032008C0EC2FF0E0E050FF4F80810E940601EE
S1130330CF5FC832B0F380E80E94020185B5897F9F
S113034085BD85B5816085BDEEE6F0E08081816084
S11303508083789487E690E00E94C30262E08AE298
S113036090E00E94530062E08BE290E00E946F00F4
S113037063E08AE290E00E945F0065E084E290E03E
S11303800E9453008DE391E00E94F30262E08AE24E
S113039090E00E947C0083E08A95F1F7000062E01F
S11303A08AE290E00E946F00EDCF1F920F920FB689
S11303B00F9211242F933F934F935F936F937F93E7
S11303C08F939F93AF93BF93EF93FF9382E591E055
S11303D00E94F30261E085E00E940A0185E691E053
S11303E00E941C0161E08FE00E940A0183E00E94E8
S11303F0180160E08FE00E940A0184E00E94180165
S1130400FF91EF91BF91AF919F918F917F916F91E8
S11304105F914F913F912F910F900FBE0F901F90BE
S113042018951F920F920FB60F9211242F933F939A
S11304304F935F936F937F938F939F93AF93BF93E8
S1130440CF93DF93EF93FF9389E691E00E94F30249
S113045080918401811110C081E08093840189E737
S113046091E00E94F302E1E8F0E08081897F8083DB
S11304708081816080831CC08130D1F4E1E8F0E0A8
S11304808081887F8083C4E8D0E08881998110923C
S113049084014AE068E271E00E94000388E291E08E
S11304A00E94F30284E791E00E94F3021982188209
S11304B0FF91EF91DF91CF91BF91AF919F918F9178
S11304C07F916F915F914F913F912F910F900FBE4C
S11304D00F901F9018951F920F920FB60F92112430
S11304E02F938F939F93EF93FF938091C00020915C
S11304F0C6008C71E0918701EF5FEF7790918601E0
S1130500E91739F0E0938701F0E0E657FE4F2083C6
S113051001C082E090918501892B80938501FF9130
S1130520EF919F918F912F910F900FBE0F901F907D
S113053018951F920F920FB60F9211248F939F93C9
S1130540EF93FF939091890180918801981769F046
S1130550E0918801EF5FEF77E0938801F0E0E65FD8
S1130560FD4F80818093C60005C0E1ECF0E08081FE
S11305708F7D8083FF91EF919F918F910F900FBE9C
S11305800F901F9018951092890110928801109273
S1130590870110928601282F392F33231CF422E07F
S11305A02093C00090789093C5008093C40088E99C
S11305B08093C10086E08093C20008952091890150
S11305C02F5F2F77909188012917E1F3E22FF0E054
S11305D0E65FFD4F808320938901E1ECF0E08081A8
S11305E0806280830895CF93DF93EC0103C021964A
S11305F00E94DE0288818111FACFDF91CF910895A4
S1130600BB274A3031F4992322F4BDE290958195B9
S11306109F4F0C940C03BB27FB015527AA27880F77
S1130620991FAA1FA41710F0A41B83955051B9F762
S1130630A05DAA3308F0A95DA193009779F7B111E1
S1130640B1931192CB010C942503DC01FC01672FBB
S113065071917723E1F7329704C07C916D93708395
S11106606291AE17BF07C8F30895F894FFCF58
S113066E111F1F1F1F1F1F1F1111111F1F1F1F1FC0
S113067E11111111111F1F1F111111111111111F20
S113068E0E1F0E000A1402042020202020202020F9
S113069E20202020202020204C564C3A00776869D8
S11306AE6C6520697320776F726B696E672F722F7A
S11306BE6E0054494D302064697370206F767266F3
S11306CE2F722F6E0032636D00696E73696465203C
S11306DE494E54302F722F6E0073746172742F72E0
S10706EE2F6E000067
S9030000FC
